:02000000682F67
:1000060083160313141911281F301105F100710806
:10001600003A031D11280130F0001228F0010800F3
:10002600831203138C115B0893008316141D1C287E
:10003600182883128C1920281C288316111B2528A2
:0C004600F001282811150230F00008001D
:1000520083120313F8010830FC00700DF80D7408C8
:10006200F80203183628F8070310F00DFC0B2E28AF
:02007200080084
:10007400710DF80DF90D7408F8027508031C750F5D
:10008400F902F00DF10D0F30FC00710DF80DF90DB2
:100094007408701C5328F8027508031C750FF902C4
:1000A4005828F80775080318750FF907F00DF10DB6
:1000B400FC0B4728701864287408F807750803189F
:0800C400750FF90700000800A8
:1000CC0083120313DB01DC015C08123C031D702856
:1000DC005B088E3C031C7C280320700803197728CE
:1000EC007C288312DB0A0319DC0A6A28831212307B
:1000FC005C02031D83288F305B02031C88287B3035
:10010C00F0008E2883161114111C8D288A28F001FA
:02011C000800D9
:08011E008316031311150800FC
:10012600831203138C118316911583128C199C2844
:1001360098281308F1005B08003A031DA5288316CA
:100146009116A7288316911283128C118316111605
:0E01560083128C19AF28AB287108F000080046
:0E016400831603139114911CB828B5280800C7
:10017200831203137408003A031DC8287508003A55
:10018200031DC828FF30F0007F30F10021298312BF
:100192000313FD01F901F801710870040319003419
:1001A20071087506FA00FA1BFD09FB01F51FDE282E
:1001B200F409F509F40A0319F50AF11FE528F00913
:1001C200F109F00A0319F10A71087504FA00FA1B21
:1001D200FA283A207B180D29FD1F0034F009F10995
:1001E200F00A0319F10AF809F909F80A0319F90AD8
:1001F2000034F51F0929F11B05297108F90070085F
:10020200F800F101F001ED28F101F001F00A0034EB
:10021200F109F009FB0AEA28F80A0319F90A740835
:100222007802031DED2875087902031DED28F901F6
:10023200F801F00A0319F10AF11FED280000FF345A
:020242000800B2
:0E0244008312031352088A005108820008003A
:100252006620903083120313DB001320AC3083122C
:10026200DB00132002308312DB001320B220903017
:100272008312DB001320EE308312DB0013208F2069
:02028200080072
:10028400831203137008F100F0010830FC007108B8
:10029400F40C03185129FC0B4A29F1010034031012
:1002A4005629F40C0318F107F10CF00CFC0B53293C
:0202B400080040
:1002B6006620A03083120313DB0013200230831262
:1002C600DB001320B220A1308312DB0013200130A3
:1002D6008312DB0093200130DB0093207008D700E7
:1002E6000130DB0093207008D8000130DB0093203A
:1002F6007008D9000130DB0093207008DA00DB01BA
:1003060093208F200F3083125705F0002A08F0063D
:100316000F30F0052A08F0067008AA00F0305705DD
:10032600F1007108F200F20CF213F20CF213F20C67
:10033600F213F20CF2130430F0007008F1007208A8
:10034600F00071080319AB29F00D7010FF3EA529C6
:100356002A08F006F030F0052A08F0067008AA0010
:100366000F305805F0002B08F0060F30F0052B086B
:10037600F0067008AB00F0305805F1007108F20085
:10038600F20CF213F20CF213F20CF213F20CF2135B
:100396000430F0007008F1007208F00071080319CB
:1003A600D829F00D7010FF3ED2292B08F006F03048
:1003B600F0052B08F0067008AB000F305A05F00068
:1003C6002608F0060F30F0052608F0067008A6008D
:1003D60010305A05F1007108F200F20CF213F20C1B
:1003E600F213F20CF213F20CF2130430F000700860
:1003F600F1007208F00071080319052AF00D70105B
:10040600FF3EFF292608F006F030F0052608F00624
:100416007008A6000F305905F0002708F0060F30C7
:10042600F0052708F0067008A70030305905F100DE
:100436007108F200F20CF213F20CF213F20CF21342
:10044600F20CF2130430F0007008F1007208F000AC
:1004560071080319322AF00D7010FF3E2C2A270866
:10046600F006F030F0052708F0067008A7006620B1
:10047600903083120313DB001320AA308312DB00B3
:100486001320B22091308312DB0013208312DB018C
:1004960093207008D6008F2083125608003C03185C
:1004A600562AF001582A0130F00070185C2A2410F0
:1004B6005D2A24140A30F4005608F0002920780832
:1004C600F0000430F1007108F2007008F1007208C3
:1004D6000319712AF10D7110FF3E6B2A2208F106ED
:1004E600F030F1052208F1067108A2000A30F40086
:1004F6005608F00029200A30F40029207808F00078
:100506002308F0060F30F0052308F0067008A30054
:020516000800DB
:100518000230831203135607D800942E0130860543
:100528003F0885005708003A03199F2A5708023ADE
:1005380003199F2AC82A5708003A031DB62A5608E5
:1005480084000008F0000F30F0050A30F40029207C
:100558007808F0007008343E8400FE300005F00092
:10056800700886045708023A031DBF2AFE303E056C
:10057800F000700886040730FC007D30FD00FD0B9C
:10058800C32AFC0BC32AE72A5708013A031DE72AA6
:10059800560884000008F0000F30F0050A30F40017
:1005A80029207808F0007008343E8400FE300005E9
:1005B800F000700886040730FC007D30FD00FD0B5C
:1005C800E32AFC0BE32A013086054008850057081A
:1005D800003A0319F42A5708023A0319F42A282B77
:1005E8005708003A031D162B560884000008F0002F
:1005F800F0307005F100F10CF113F10CF113F10C6E
:10060800F113F10CF1137108F0000A30F4002920FD
:100618007808F0007008343E8400FE300005F000D1
:10062800700886045708023A031D1F2BFE303E054A
:10063800F000700886040730FC007D30FD00FD0BDB
:10064800232BFC0B232B522B5708013A031D522B4B
:10065800560884000008F000F0307005F100F10C35
:10066800F113F10CF113F10CF113F10CF113710802
:10067800F0000A30F40029207808F0007008343EB1
:100688008400FE300005F000700886040730FC0086
:100698007D30FD00FD0B4E2BFC0B4E2B01308605EB
:1006A800420885005708003A03195F2B5708013A9A
:1006B80003195F2B872B5708003A031D752B560A21
:1006C80084000F300005F0000A30F4002920780873
:1006D800F0007008343E8400FE300005F000700819
:1006E80086045708013A031D7E2BFE303E05F000B4
:1006F800700886040730FC007D30FD00FD0B822B5E
:10070800FC0B822BA52B5708023A031DA52B560A72
:1007180084000F300005F0000A30F4002920780822
:10072800F0007008343E8400FE300005F0007008C8
:1007380086040730FC007D30FD00FD0BA12BFC0B6F
:10074800A12B01308605430885005708003A031994
:10075800B22B5708013A0319B22BE42B5708003A79
:10076800031DD22B560A8400F0300005F100F10C6D
:10077800F113F10CF113F10CF113F10CF1137108F1
:10078800F0000A30F40029207808F0007008343EA0
:100798008400FE300005F000700886045708013A0E
:1007A800031DDB2BFE303E05F00070088604073081
:1007B800FC007D30FD00FD0BDF2BFC0BDF2B0C2C30
:1007C8005708023A031D0C2C560A8400F030000525
:1007D800F100F10CF113F10CF113F10CF113F10C20
:1007E800F1137108F0000A30F40029207808F000AD
:1007F8007008343E8400FE300005F000700886045E
:100808000730FC007D30FD00FD0B082CFC0B082C8C
:1008180001308605410885005708003A031D2F2C32
:10082800033056078400643000020318212CFE3080
:100838002E05F00070088604262CFE303305F000E3
:10084800700886040730FC007D30FD00FD0B2A2C63
:10085800FC0B2A2C452C5708013A0319382C570849
:10086800023A0319382C452CFE302E05F00070088A
:1008780086040730FC007D30FD00FD0B412CFC0B8D
:10088800412C033056078400C83000020318582C46
:1008980003305607F10071088400000AF00071085F
:1008A8008400700880005C2C0330560784008001A7
:1008B800B62E013086053F088500FE303E05F00063
:1008C800700886040730FC007D30FD00FD0B6A2CA3
:1008D800FC0B6A2C01308605400885005608840008
:1008E8000008F000F0307005F100F10CF113F10C84
:1008F800F113F10CF113F10CF1137108F0000A3047
:10090800F40029207808F0007008343E8400FE3096
:100918000005F000700886040730FC007D30FD00FB
:10092800FD0B942CFC0B942C0130860542088500A5
:10093800560A84000F300005F0000A30F400292020
:100948007808F0007008343E8400FE300005F0009E
:10095800700886040730FC007D30FD00FD0BB22CCA
:10096800FC0BB22C0130860543088500023056077F
:1009780084000008F000701CC72CFE303205F0001F
:1009880070088604CE2CFF308500FE303E05F0004E
:10099800700886040730FC007D30FD00FD0BD22C6A
:1009A800FC0BD22C0130860541088500FE3030054D
:1009B800F000700886040730FC007D30FD00FD0B58
:1009C800E32CFC0BE32C0330560784008001B62E81
:1009D800013086053F0885005708003A0319F92CAD
:1009E8005708043A0319F92C222D5708003A031D19
:1009F800102D560884000008F0000F30F0050A306A
:100A0800F40029207808F0007008343E8400FE3095
:100A18000005F000700886045708043A031D192DD4
:100A2800FE303E05F000700886040730FC007D307B
:100A3800FD00FD0B1D2DFC0B1D2D412D5708033A04
:100A4800031D412D560884000008F0000F30F00502
:100A58000A30F40029207808F0007008343E840039
:100A6800FE300005F000700886040730FC007D3079
:100A7800FD00FD0B3D2DFC0B3D2D0130860540088A
:100A880085005708003A03194E2D5708043A0319F0
:100A98004E2D822D5708003A031D702D56088400EC
:100AA8000008F000F0307005F100F10CF113F10CC2
:100AB800F113F10CF113F10CF1137108013A031D54
:100AC8006B2DFE303505F00070088604702DFE3061
:100AD8003E05F000700886045708043A031D792D76
:100AE800FE303E05F000700886040730FC007D30BB
:100AF800FD00FD0B7D2DFC0B7D2DAC2D5708033A19
:100B0800031DAC2D560884000008F000F030700575
:100B1800F100F10CF113F10CF113F10CF113F10CDC
:100B2800F1137108013A031D9F2DFE303505F000C1
:100B380070088604A42DFE303E05F0007008860477
:100B48000730FC007D30FD00FD0BA82DFC0BA82D07
:100B580001308605420885005708003A0319B92D67
:100B68005708033A0319B92DE12D5708003A031D18
:100B7800CF2D560A84000F300005F0000A30F4002B
:100B880029207808F0007008343E8400FE30000503
:100B9800F000700886045708033A031DD82DFE306C
:100BA8003E05F000700886040730FC007D30FD002B
:100BB800FD0BDC2DFC0BDC2DFF2D5708043A031D23
:100BC800FF2D560A84000F300005F0000A30F400AB
:100BD80029207808F0007008343E8400FE300005B3
:100BE800F000700886040730FC007D30FD00FD0B26
:100BF800FB2DFC0BFB2D01308605430885005708AB
:100C0800003A03190C2E5708033A03190C2E3E2EEE
:100C18005708003A031D2C2E560A8400F0300005B0
:100C2800F100F10CF113F10CF113F10CF113F10CCB
:100C3800F1137108F0000A30F40029207808F00058
:100C48007008343E8400FE300005F0007008860409
:100C58005708033A031D352EFE303E05F000700894
:100C680086040730FC007D30FD00FD0B392EFC0B9F
:100C7800392E662E5708043A031D662E560A84003C
:100C8800F0300005F100F10CF113F10CF113F10C47
:100C9800F113F10CF1137108F0000A30F400292067
:100CA8007808F0007008343E8400FE300005F0003B
:100CB800700886040730FC007D30FD00FD0B622EB5
:100CC800FC0B622E0130860541088500FE302F0599
:100CD800F000700886040730FC007D30FD00FD0B35
:100CE800732EFC0B732E033056078400C8300002A5
:100CF80003188A2E03305607F10071088400000A91
:100D0800F00071088400700880008E2E03305607AA
:100D180084008001B62E0330560784008001B62E69
:100D28005808840006300005F100F10CF113710831
:100D3800003A0319922A5808840006300005F10089
:100D4800F10CF1137108013A03195D2C580884005D
:100D580006300005F100F10CF1137108023A03198D
:060D6800EC2C8F2E0800A8
:100D6E008316031314139413071687153830831242
:040D7E0094000800D5
:100D82006620A03083120313DB001320023083128B
:100D9200DB0013208312DB011320F03083124B059A
:100DA200F100F10CF113F10CF113F10CF113F10C50
:100DB200F1130F307105DB00DB0D5B10DB0D5B10F7
:100DC200DB0D5B10DB0D5B100F304B05F0000F30BD
:100DD200F0057008DB041320F03083124C05F1009B
:100DE200F10CF113F10CF113F10CF113F10CF113FD
:100DF2000F307105DB00DB0D5B10DB0D5B10DB0DD3
:100E02005B10DB0D5B100F304C05F0000F30F0056E
:100E12007008DB041320F03083124505F100F10C59
:100E2200F113F10CF113F10CF113F10CF1130F307A
:100E32007105DB00DB0D5B10DB0D5B10DB0D5B1066
:100E4200DB0D5B100F304505F0000F30F005700828
:100E5200DB041320F03083124405F100F10CF1138E
:100E6200F10CF113F10CF113F10CF1130F307105C8
:100E7200DB00DB0D5B10DB0D5B10DB0D5B10DB0DB4
:100E82005B100F304405F0000F30F0057008DB04F2
:060E920013208F20080070
:100E98000730831603139C0006309F0085018601E6
:100EA8002730870032309300B72629215B210800BC
:100EB80022218A110A128000840AD10A0319D20A4F
:080EC800F003031D5C2F08007C
:100ED000F2274C272108033A031D7F2F2008013EEB
:100EE000F000F1010318F10A0330F4000030F500BE
:100EF000B9207808F0007908F1007008A000D0014E
:100F00005008C83C031CAA2F972F5B212A30D6001B
:100F1000D7018C22A32F5B212230D600D7018C224F
:100F2000A32F5B212630D600D7018C22A32F2008C7
:100F3000003A0319852F2008023A03198B2F200845
:100F4000013A0319912F0718A82F8A1500208A113A
:100F5000D00A802F2108013EF000F1010318F10AA8
:100F60000430F4000030F500B9207808F00079086A
:0A0F7000F1007008A1006A2FBC2FE9
:100FE400203084002F3083120313F000C230D1006C
:080FF4000730D2005C27080061
:10100000831203135308D4000708D300531813287E
:1010100053180D28541C0F281328541C1328C90AD0
:101020000319CA0A1528C901CA0102304A02031D60
:101030001B2858304902031C2F2AC901CA01043059
:10104000F3004B30F2002A30F100710884000008F0
:10105000F0007208840070088000F20AF10AF303BD
:10106000031D25280430F3004430F2002630F1003F
:10107000710884000008F000720884007008800085
:10108000F20AF10AF303031D382802304A02031D55
:101090004B28583049020318202A871E202A53085B
:1010A000D4000708D300F1015318F10A7108003A7F
:1010B000031D6D28F2015318F20AF1015418F10AC8
:1010C00072087106031D6D284908013EF0000030CA
:1010D0000318013E4A07F1006F28F001F101700882
:1010E000C9007108CA0053199428541D94288428F3
:1010F0000230C80094280330C80094280430C80087
:1011000094280130C80094284808013A0319782827
:101110004808023A03197B284808033A03197E2835
:101120004808043A03198128D3180D2AD41C0D2A23
:10113000FD29F0304B05F400F40CF413F40CF41317
:10114000F40CF413F40CF4130A30F0008A11422169
:101150008A150F304B05F1007108F0077008D500B3
:101160000130F007F1010318F10A3C30F4000030BF
:10117000F5008A11B9208A157808F0007908F10085
:101180007008D5000A30F4008A1129208A157808E1
:10119000F0004B08F0060F30F0054B08F006700821
:1011A000CB000A30F4005508F0008A1129208A1576
:1011B0000430F1007108F2007008F10072080319A0
:1011C000E528F10D7110FF3EDF284B08F106F030E5
:1011D000F1054B08F1067108CB000D2AF0304C05E3
:1011E000F400F40CF413F40CF413F40CF413F40CF6
:1011F000F4130A30F0008A1142218A150F304C0591
:10120000F1007108F0077008D5000130F007F10116
:101210000318F10A1830F4000030F5008A11B920E3
:101220008A157808F0007908F1007008D5000A30B6
:10123000F4008A1129208A157808F0004C08F0067D
:101240000F30F0054C08F0067008CC000A30F400AE
:101250005508F0008A1129208A150430F100710820
:10126000F2007008F100720803193A29F10D7110AB
:10127000FF3E34294C08F106F030F1054C08F10628
:101280007108CC000D2AF0304505F400F40CF4137D
:10129000F40CF413F40CF413F40CF4130A30F0000F
:1012A0008A1142218A150F304505F1007108F007B7
:1012B0007008D5000130F007F1010318F10A203061
:1012C000F4000030F5008A11B9208A157808F00082
:1012D0007908F1007008D5007008003A031D7229E2
:1012E0000130D5000A30F4005508F0008A11292099
:1012F0008A157808F0004508F0060F30F00545081B
:10130000F0067008C5000A30F4005508F0008A1194
:1013100029208A150430F1007108F2007008F100EC
:10132000720803199729F10D7110FF3E91294508A4
:10133000F106F030F1054508F1067108C5000D2AE7
:10134000F0304405F400F40CF413F40CF413F40C32
:10135000F413F40CF4130A30F0008A1142218A15B8
:101360000F304405F1007108F0077008D500013016
:10137000F007F1010318F10A0D30F4000030F50018
:101380008A11B9208A157808F0007908F1007008F0
:10139000D5007008003A031DCF290130D5000A306E
:1013A000F4005508F0008A1129208A157808F00009
:1013B0004408F0060F30F0054408F0067008C40039
:1013C0000A30F4005508F0008A1129208A150430EB
:1013D000F1007108F2007008F10072080319F42995
:1013E000F10D7110FF3EEE294408F106F030F105D1
:1013F0004408F1067108C4000D2A4808013A03198F
:1014000099284808023A0319EE284808043A0319B3
:1014100043294808033A0319A0294808023C031C41
:10142000142A4B30F000162A4430F0007008CF0028
:101430007008D6004808D7008A118C228A154528E2
:1014400002304A02031D262A58304902031C2E2A64
:101450008A11C1268A158312C901CA012F2A0800E0
:020F8400003437
:020F8600003435
:080F880050340334023400343C
:080F9000003400340434003485
:080F980010342234003400344F
:0C0FA0006034303480345034803400342D
:100FAC007E344234EC34E634D234B634BE3462345B
:060FBC00FE34F63400349F
:0A0FC200DF34F734FB34FD34FE3455
:080FCC00003400340434003449
:020FD4000134E6
:040FD60000340034AF
:080FDA0000340034003400343F
:02400E000A2F77
:00000001FF
